:03000000020026D5
:0C002600787FE4F6D8FD75813202006D91
:0D02F0000121000223000001250001220071
:0300230002018354
:07018300C0E0C0D075D008F8
:10018A00309843C298AF99C3E524940AE5239400B2
:10019A004009752500752300752400BF3C037525A9
:1001AA0001E525600E0524E524700205231424299F
:1001BA00F8A60FBF0D10E525600C75220175250004
:0E01CA00752300752400309905C29975210037
:0501D800D0D0D0E032A0
:0A031F00E52170FC7521018F992281
:10024E008B268A278928AB26AA27A9281200B260F6
:10025E00130528E5287002052714F91200B2FF12C3
:05026E00031F80E222E5
:0A021F008B168A1789188C198D1AA6
:10022900E4FDFCC3ED951AEC95195018AB16AA1705
:10023900A9188D828C831200CBFF12031F0DBD00FC
:04024900010C80DF45
:01024D00228E
:10012400E4F510F511E52260557829E6643C703C4D
:1001340008E664A0702F08E6B40104C2908002D2DD
:1001440090782CE6B40104C2918002D29175123CDD
:100154007513AD75140D7B007A0079127D037C0054
:1001640012021F8007782A76AA1202D37E007F0A21
:0E0174007D007B007A0079291200F8E4F52264
:01018200225A
:10029700D3EF9400EE940040147DD07C07ED1D70E1
:0D02A700011CED4C70F7EF1F70E61E80E3A8
:0102B4002227
:1002B500D3EF9400EE940040147D037C00ED1D7097
:0D02C500011CED4C70F7EF1F70E61E80E38A
:0102D2002209
:10000E0075985075D78F75D6FD438E14438E01D2D9
:04001E00ACD2AF228F
:1002D300A290E433C454F0FFA291E4334F75163A6D
:0C02E3007517AAF5182517F519751A0DE6
:0102EF0022EC
:0E02FD00021C0000021E0000011B0001200078
:10027300E4F591F59212000375C10643C120E52010
:100283006006E4F52043C110E51B6003E4F51B128F
:04029300012480EAD8
:0600030012030C02000EC6
:10030C00438E805389F0758A40758CA2C28DD2A918
:03031C00D28C225E
:03000B000201DD12
:1001DD00C0E0C0D075D008051DE51DAE1C70020530
:1001ED001C14FFBE0B0CBFB809751B01751C0075E7
:1001FD001D00051FE51FAE1E7002051E14FFBE0378
:10020D000CBFE809751E00751F00752001D0D0D0F8
:02021D00E032CD
:10003200020273E493A3F8E493A34003F68001F26F
:1000420008DFF48029E493A3F85407240CC8C333CF
:10005200C4540F4420C8834004F456800146F6DF9E
:10006200E4800B01020408102040809002F0E47E3C
:10007200019360BCA3FF543F30E509541FFEE49393
:10008200A360010ECF54C025E060A840B8E493A35A
:10009200FAE493A3F8E493A3C8C582C8CAC583CA85
:1000A200F0A3C8C582C8CAC583CADFE9DEE780BE3D
:01030B0000F1
:1000B200BB010689828A83E0225002E722BBFE024C
:0900C200E32289828A83E493227F
:1000CB00BB010CE58229F582E5833AF583E02250EA
:1000DB0006E92582F8E622BBFE06E92582F8E22234
:0D00EB00E58229F582E5833AF583E493224E
:1000F800EF4E6012EF60010EEDBB010B89828A831F
:10010800F0A3DFFCDEFA2289F05007F709DFFCA92B
:0C011800F022BBFEFCF309DFFCA9F02282
:00000001FF
